{
  "contractName": "Payment",
  "abi": [
    {
      "inputs": [],
      "payable": false,
      "stateMutability": "nonpayable",
      "type": "constructor"
    },
    {
      "anonymous": false,
      "inputs": [
        {
          "indexed": false,
          "internalType": "address payable",
          "name": "_sendingTo",
          "type": "address"
        },
        {
          "indexed": false,
          "internalType": "address",
          "name": "_sendingFrom",
          "type": "address"
        },
        {
          "indexed": false,
          "internalType": "uint256",
          "name": "amount",
          "type": "uint256"
        }
      ],
      "name": "InfoOfSending",
      "type": "event"
    },
    {
      "constant": false,
      "inputs": [
        {
          "internalType": "address payable",
          "name": "_sendingTo",
          "type": "address"
        }
      ],
      "name": "sending",
      "outputs": [
        {
          "internalType": "bool",
          "name": "",
          "type": "bool"
        }
      ],
      "payable": true,
      "stateMutability": "payable",
      "type": "function"
    },
    {
      "constant": false,
      "inputs": [],
      "name": "getBalanceOfCurrentAccount",
      "outputs": [
        {
          "internalType": "uint256",
          "name": "",
          "type": "uint256"
        }
      ],
      "payable": true,
      "stateMutability": "payable",
      "type": "function"
    }
  ],
  "bytecode": "0x608060405234801561001057600080fd5b50336000806101000a81548173ffffffffffffffffffffffffffffffffffffffff021916908373ffffffffffffffffffffffffffffffffffffffff1602179055506102b4806100606000396000f3fe6080604052600436106100295760003560e01c806333022a571461002e578063eba1877b1461008a575b600080fd5b6100706004803603602081101561004457600080fd5b81019080803573ffffffffffffffffffffffffffffffffffffffff1690602001909291905050506100a8565b604051808215151515815260200191505060405180910390f35b61009261023f565b6040518082815260200191505060405180910390f35b600081600160006101000a81548173ffffffffffffffffffffffffffffffffffffffff021916908373ffffffffffffffffffffffffffffffffffffffff160217905550600160009054906101000a900473ffffffffffffffffffffffffffffffffffffffff1673ffffffffffffffffffffffffffffffffffffffff166108fc349081150290604051600060405180830381858888f19350505050158015610153573d6000803e3d6000fd5b507f95e103643a4d015237b47cdd6328515ad60bb7f1499f7378dd4f9280d04c74f5600160009054906101000a900473ffffffffffffffffffffffffffffffffffffffff166000809054906101000a900473ffffffffffffffffffffffffffffffffffffffff1634604051808473ffffffffffffffffffffffffffffffffffffffff1673ffffffffffffffffffffffffffffffffffffffff1681526020018373ffffffffffffffffffffffffffffffffffffffff1673ffffffffffffffffffffffffffffffffffffffff168152602001828152602001935050505060405180910390a160019050919050565b60008060009054906101000a900473ffffffffffffffffffffffffffffffffffffffff1673ffffffffffffffffffffffffffffffffffffffff163190509056fea265627a7a723158206ee5a981e2f117f03b86b1d12de27e2c0bcce59eb5d803c38e8527013031e4a664736f6c63430005100032",
  "source": "pragma solidity ^0.5.16;\n\ncontract Payment {\n  address sendingFrom;\n  address payable sendingTo;\n\n  constructor() public {\n    sendingFrom = msg.sender;\n  }\n\n  event InfoOfSending(address payable _sendingTo, address _sendingFrom, uint amount);\n\n  function sending( address payable _sendingTo ) public payable returns (bool){\n      sendingTo = _sendingTo;\n\n      sendingTo.transfer(msg.value);\n\n      emit InfoOfSending(sendingTo, sendingFrom, msg.value);\n\n      return true;\n  }\n\n  function getBalanceOfCurrentAccount() public payable returns (uint) {\n    return sendingFrom.balance;\n  }\n\n}\n",
  "sourcePath": "/home/airat/projects/MyBlock/contracts/Payment.sol",
  "compiler": {
    "name": "solc",
    "version": "0.5.16+commit.9c3226ce.Emscripten.clang"
  },
  "schemaVersion": "3.4.16",
  "updatedAt": "2024-01-17T12:58:09.088Z",
  "networkType": "ethereum",
  "devdoc": {
    "methods": {}
  },
  "userdoc": {
    "methods": {}
  }
}